:100000000C942A000C94D80C0C94280D0C94780DA8
:100010000C9447000C9447000C94B40A0C944E0ABC
:100020000C94810A0C941B0A0C943F070C940C0747
:100030000C9447000C9447000C9447000C94470024
:100040000C94BB110C9447000C9447000C9447008F
:100050000C94470011241FBECFE5D8E0DEBFCDBF12
:1000600011E0A0E6B0E0EAE7F1E402C005900D92ED
:10007000A635B107D9F711E0A6E5B1E001C01D92A0
:10008000A437B107E1F70E94251A0C94BB200C9409
:100090000000EF92FF920F931F937B018C0120E0F1
:1000A00030E040E05FE40E94490388238CF0C801FF
:1000B000B70120E030E040E05FE40E94C1010E940F
:1000C000A9039B01AC01205030404040504806C07D
:1000D000C801B7010E94A9039B01AC01B901CA0183
:1000E0001F910F91FF90EF900895A0E0B0E0EBE733
:1000F000F0E00C948420DC012B01FA019C919230F9
:1001000008F439C1EB018881823008F433C194309E
:1001100069F4843009F02FC111969C91119789815F
:10012000981709F428C1ABE2B1E025C1843009F485
:1001300021C18230A9F4923009F01DC19A01AD01AC
:1001400088E0EA010990AE01E90109929E0181501F
:10015000C1F7E201898111969C918923818308C1AD
:10016000923009F407C112962D903C901397EB0141
:100170008A819B811496AD90BD90CD90DC901797AD
:10018000EC80FD800E811F819101281B390BB90184
:1001900037FF04C066277727621B730B6032710537
:1001A0000CF061C0121613066CF537014801062EDB
:1001B00004C096948794779467940A94D2F721E0C8
:1001C00030E040E050E004C0220F331F441F551FB1
:1001D0006A95D2F721503040404050402E213F21B7
:1001E00040235123211531054105510521F021E01E
:1001F00030E040E050E079018A01E628F72808293C
:1002000019293CC0232BD1F1260E371E350146019A
:10021000062E04C096948794779467940A94D2F734
:1002200021E030E040E050E004C0220F331F441FC3
:10023000551F6A95D2F721503040404050402A2146
:100240003B214C215D21211531054105510521F04E
:1002500021E030E040E050E059016A01A628B728CB
:10026000C828D9280BC0821593052CF01C01AA249C
:10027000BB24650103C0EE24FF24870111969C91E5
:10028000D20111968C91981709F445C0992339F041
:10029000A80197012A193B094C095D0906C0A6016E
:1002A00095012E193F09400B510B57FD08C01182D3
:1002B0003382228224833583468357831DC081E0A5
:1002C00081833382228288279927DC01821B930B4A
:1002D000A40BB50B84839583A683B7830DC0220F2F
:1002E000331F441F551F24833583468357838281E0
:1002F000938101979383828324813581468157813D
:10030000DA01C9010197A109B1098F5F9F4FAF4F72
:10031000BF4328F30BC0918333822282EA0CFB1C7B
:100320000C1D1D1DE482F5820683178383E0808304
:10033000248135814681578157FF1AC0C901AA27F8
:1003400097FDA095BA2F81709070A070B0705695EF
:10035000479537952795822B932BA42BB52B848318
:100360009583A683B7838281938101969383828349
:10037000DF0101C0D201CD01CDB7DEB7E2E10C94BF
:10038000A020A0E2B0E0E7ECF1E00C9490206983BB
:100390007A838B839C832D833E834F835887E9E048
:1003A000EE2EF12CEC0EFD1ECE010196B7010E943F
:1003B000D2048E010F5E1F4FCE010596B8010E9438
:1003C000D2048A8991E089278A8BC701B801AE01DE
:1003D000475E5F4F0E9475000E94FD03A096E6E015
:1003E0000C94AC20A0E2B0E0E8EFF1E00C94902097
:1003F00069837A838B839C832D833E834F835887C5
:10040000F9E0EF2EF12CEC0EFD1ECE010196B701A6
:100410000E94D2048E010F5E1F4FCE010596B801D7
:100420000E94D204C701B801AE01475E5F4F0E942F
:1004300075000E94FD03A096E6E00C94AC20A0E2BB
:10044000B0E0E5E2F2E00C94842069837A838B8348
:100450009C832D833E834F835887CE010196BE0136
:10046000675F7F4F0E94D204CE010596BE016F5E8A
:100470007F4F0E94D2049985923088F0898982301A
:10048000C8F0943019F4823051F404C0843029F457
:10049000923081F48BE291E0C6C0923049F420E0C2
:1004A0009A858A89981321E02A87CE010996BBC0D4
:1004B000823049F420E09A858A89981321E02A8BBA
:1004C000CE014196B0C02D843E844F8458886D88FB
:1004D0007E888F88988CEE24FF248701AA24BB2471
:1004E000650140E050E060E070E0E0E0F0E0C10174
:1004F00081709070892BE9F0E60CF71C081D191D1E
:100500009A01AB012A0D3B1D4C1D5D1D80E090E062
:10051000A0E0B0E0E614F7040805190520F481E036
:1005200090E0A0E0B0E0BA01A901480F591F6A1F8E
:100530007B1FAA0CBB1CCC1CDD1C97FE08C081E0F5
:1005400090E0A0E0B0E0A82AB92ACA2ADB2A3196B6
:10055000E032F10549F0660C771C881C991C569412
:10056000479437942794C3CFFA85EA892B893C892D
:100570008B859C85280F391F2E5F3F4F17C0CA01FE
:1005800081709070892B61F016950795F794E79428
:1005900080E090E0A0E0B0E8E82AF92A0A2B1B2BC3
:1005A00076956795579547952F5F3F4F77FDE7CF36
:1005B0000CC0440F551F661F771F17FD4160EE0CDE
:1005C000FF1C001F111F21503040403090E05907A0
:1005D00090E0690790E4790760F32B8F3C8FDB0193
:1005E000CA018F779070A070B07080349105A1051A
:1005F000B10561F447FD0AC0E114F10401051105DC
:1006000029F0405C5F4F6F4F7F4F40781A8EFE1786
:1006100011F081E08A8F4D8F5E8F6F8F78A383E01A
:10062000898FCE0149960E94FD03A096E2E10C94C9
:10063000A020A8E1B0E0EFE1F3E00C949020698302
:100640007A838B839C832D833E834F83588789E0F5
:10065000E82EF12CEC0EFD1ECE010196B7010E9492
:10066000D2048E010F5E1F4FCE010596B8010E9485
:10067000D2048985823040F08989823028F0C70110
:10068000B8010E944A0501C08FEF6896E6E00C941D
:10069000AC20A8E1B0E0EFE4F3E00C949020698393
:1006A0007A838B839C832D833E834F83588789E095
:1006B000E82EF12CEC0EFD1ECE010196B7010E9432
:1006C000D2048E010F5E1F4FCE010596B8010E9425
:1006D000D2048985823040F08989823028F0C701B0
:1006E000B8010E944A0501C08FEF6896E6E00C94BD
:1006F000AC20A8E1B0E0EFE7F3E00C949020698330
:100700007A838B839C832D833E834F83588789E034
:10071000E82EF12CEC0EFD1ECE010196B7010E94D1
:10072000D2048E010F5E1F4FCE010596B8010E94C4
:10073000D2048985823040F08989823028F0C7014F
:10074000B8010E944A0501C081E06896E6E00C9479
:10075000AC20ACE0B0E0EFEAF3E00C9494206983C5
:100760007A838B839C83CE010196BE016B5F7F4FA2
:100770000E94D2048D81823061F1823050F1843048
:1007800021F48E81882351F12EC02F81388537FDC9
:1007900020C06E812F3131051CF06623F9F023C093
:1007A0008EE190E0821B930B29853A854B855C8511
:1007B00004C056954795379527958A95D2F76623B5
:1007C000B1F050954095309521953F4F4F4F5F4F79
:1007D0000EC020E030E040E050E009C02FEF3FEFD6
:1007E0004FEF5FE704C020E030E040E050E8B9019F
:1007F000CA012C96E2E00C94B020DF92EF92FF92B7
:100800000F931F93FC01E480F58006811781D1804E
:100810008081823048F480E090E0A0E1B0E0E82AF6
:10082000F92A0A2B1B2BA5C0843009F49FC0823003
:1008300021F4EE24FF24870105C0E114F104010531
:10084000110519F4E0E0F0E096C0628173819FEF3A
:10085000623879070CF05BC022E83FEF261B370BAC
:100860002A3131052CF020E030E040E050E02AC091
:10087000B801A701022E04C0769567955795479554
:100880000A94D2F781E090E0A0E0B0E004C0880FC5
:10089000991FAA1FBB1F2A95D2F70197A109B10979
:1008A0008E219F21A023B1230097A105B10521F03E
:1008B00081E090E0A0E0B0E09A01AB01282B392B59
:1008C0004A2B5B2BDA01C9018F779070A070B07052
:1008D00080349105A105B10539F427FF09C0205CDA
:1008E0003F4F4F4F5F4F04C0215C3F4F4F4F5F4F13
:1008F000E0E0F0E02030A0E03A07A0E04A07A0E402
:100900005A0710F0E1E0F0E079018A0127C0603871
:10091000710564F5FB01E158FF4FD801C7018F77DE
:100920009070A070B07080349105A105B10539F4C4
:10093000E7FE0DC080E490E0A0E0B0E004C08FE3EB
:1009400090E0A0E0B0E0E80EF91E0A1F1B1F17FFA1
:1009500005C016950795F794E794319687E01695AC
:100960000795F794E7948A95D1F705C0EE24FF2404
:100970008701EFEFF0E06E2F679566276795902F60
:100980009F77D794DD24D7948E2F8695492F462BB9
:10099000582F5D29B701CA011F910F91FF90EF9069
:1009A000DF900895FC01DB01408151812281622F9B
:1009B0006F7770E0221F2227221F9381892F880FD3
:1009C000822B282F30E0991F9927991F11969C930D
:1009D000119721153105A9F54115510561057105DD
:1009E00011F482E037C082E89FEF13969C938E93B8
:1009F00012979A01AB0167E0220F331F441F551F66
:100A00006A95D1F783E08C930DC0220F331F441FEA
:100A1000551F12968D919C911397019713969C9355
:100A20008E931297203080E0380780E0480780E4FA
:100A3000580758F314962D933D934D935C93179755
:100A400008952F3F310579F4411551056105710570
:100A500019F484E08C93089564FF03C081E08C93C3
:100A600012C01C9210C02F57304013963C932E9307
:100A7000129783E08C9387E0440F551F661F771F02
:100A80008A95D1F7706414964D935D936D937C9322
:100A9000179708951F93DC01FB019C91923008F495
:100AA00047C08081823008F443C0943051F41196DD
:100AB0001C91843099F58181682F70E0611B710968
:100AC0003FC0843021F0923031F48230B9F181811D
:100AD000882389F12DC011961C9111978230F1F075
:100AE00081811817D9F412962D913C911397828128
:100AF00093818217930794F028173907BCF0149656
:100B00008D919D910D90BC91A02D248135814681C0
:100B10005781281739074A075B0718F4112341F05A
:100B20000AC082179307A407B50740F4112319F0F0
:100B300061E070E005C06FEF7FEF02C060E070E041
:100B4000CB011F910895DF93CF9300D000D0CDB794
:100B5000DEB789836A838981282F30E03C832B8329
:100B60008B819C818130910521F12B813C81223048
:100B700031052CF48B819C81009761F054C02B814E
:100B80003C812230310521F18B819C81833091059C
:100B900071F149C0A3E5B0E0E3E5F0E080818F7B2F
:100BA0008C93A3E5B0E0E3E5F0E08081877F8C9350
:100BB0003AC0A3E5B0E0E3E5F0E0808180648C9387
:100BC000A3E5B0E0E3E5F0E08081877F8C932BC064
:100BD000A3E5B0E0E3E5F0E080818F7B8C93A3E5B3
:100BE000B0E0E3E5F0E0808188608C931CC0A3E571
:100BF000B0E0E3E5F0E0808180648C93A3E5B0E0B1
:100C0000E3E5F0E0808188608C93A3E5B0E0E3E564
:100C1000F0E0808180628C93A3E5B0E0E3E5F0E052
:100C200080818F7E8C93A3E5B0E0E3E5F0E08081E6
:100C3000887F8C93A3E5B0E0E3E5F0E090818A81C2
:100C4000892B8C930F900F900F900F90CF91DF9185
:100C50000895DF93CF9300D00F92CDB7DEB789838D
:100C60008981282F30E03B832A838A819B818130D0
:100C7000910521F12A813B81223031052CF48A81B2
:100C80009B81009761F046C02A813B81223031056B
:100C900021F18A819B818330910571F13BC0A3E5ED
:100CA000B0E0E3E5F0E080818F7E8C93A3E5B0E0D7
:100CB000E3E5F0E080818F7D8C932CC0A3E5B0E06C
:100CC000E3E5F0E0808180618C93A3E5B0E0E3E5AB
:100CD000F0E080818F7D8C931DC0A3E5B0E0E3E55B
:100CE000F0E080818F7E8C93A3E5B0E0E3E5F0E057
:100CF000808180628C930EC0A3E5B0E0E3E5F0E074
:100D0000808180618C93A3E5B0E0E3E5F0E0808131
:100D100080628C930F900F900F90CF91DF91089588
:100D2000DF93CF93CDB7DEB7A9E5B0E0E9E5F0E01A
:100D3000808181608C93CF91DF910895DF93CF9371
:100D4000CDB7DEB7A9E5B0E0E9E5F0E080818E7FC0
:100D50008C93CF91DF910895DF93CF93CDB7DEB71A
:100D6000A9E5B0E0E9E5F0E0808182608C93CF9165
:100D7000DF910895DF93CF93CDB7DEB7A9E5B0E05B
:100D8000E9E5F0E080818D7F8C93CF91DF9108952C
:100D9000DF93CF93CDB7DEB7E2E5F0E08081CF916E
:100DA000DF910895DF93CF930F92CDB7DEB789839C
:100DB000ECE5F0E0898180830F90CF91DF91089579
:100DC000DF93CF9300D0CDB7DEB79A838983898133
:100DD0009A81009731F089819A819093570180938D
:100DE00056010F900F90CF91DF910895DF93CF932D
:100DF00000D0CDB7DEB79A83898389819A81009725
:100E000031F089819A8190935901809358010F9014
:100E10000F90CF91DF9108951F920F920FB60F920E
:100E200011242F933F934F935F936F937F938F93EF
:100E30009F93AF93BF93EF93FF93DF93CF93CDB780
:100E4000DEB78091560190915701009729F0E0910B
:100E50005601F09157010995CF91DF91FF91EF91E4
:100E6000BF91AF919F918F917F916F915F914F91C2
:100E70003F912F910F900FBE0F901F9018951F92CA
:100E80000F920FB60F9211242F933F934F935F93BE
:100E90006F937F938F939F93AF93BF93EF93FF9342
:100EA000DF93CF93CDB7DEB7809158019091590170
:100EB000009729F0E0915801F09159010995CF91DF
:100EC000DF91FF91EF91BF91AF919F918F917F91B2
:100ED0006F915F914F913F912F910F900FBE0F90A7
:100EE0001F901895DF93CF9300D000D0CDB7DEB719
:100EF00089836A838981282F30E03C832B838B810F
:100F00009C818230910509F456C02B813C812330AD
:100F1000310554F48B819C81009799F02B813C81A1
:100F20002130310559F19DC08B819C818330910521
:100F300009F45EC02B813C812430310509F475C071
:100F400090C0AFE4B0E0EFE4F0E080818E7F8C935E
:100F5000AFE4B0E0EFE4F0E080818D7F8C93AEE40D
:100F6000B0E0EEE4F0E08081877F8C93AEE4B0E007
:100F7000EEE4F0E080818F7E8C9373C0AFE4B0E04C
:100F8000EFE4F0E080818E7F8C93AFE4B0E0EFE49B
:100F9000F0E080818D7F8C93AEE4B0E0EEE4F0E091
:100FA000808188608C93AEE4B0E0EEE4F0E0808174
:100FB00080618C9356C0AFE4B0E0EFE4F0E0808154
:100FC0008E7F8C93AFE4B0E0EFE4F0E080818D7F22
:100FD0008C93AEE4B0E0EEE4F0E0808188608C9326
:100FE000AEE4B0E0EEE4F0E080818F7E8C9339C017
:100FF000AFE4B0E0EFE4F0E080818E7F8C93AFE46B
:10100000B0E0EFE4F0E0808182608C93AEE4B0E089
:10101000EEE4F0E0808188608C93AEE4B0E0EEE432
:10102000F0E0808180618C931CC0AFE4B0E0EFE41D
:10103000F0E0808181608C93AFE4B0E0EFE4F0E019
:10104000808182608C93AEE4B0E0EEE4F0E08081D9
:1010500088608C93AEE4B0E0EEE4F0E080818061E3
:101060008C93AEE4B0E0EEE4F0E08081887F8C9376
:10107000AEE4B0E0EEE4F0E090818A81892B8C93BD
:101080000F900F900F900F90CF91DF910895DF9305
:10109000CF9300D00F92CDB7DEB789838981282FF7
:1010A00030E03B832A838A819B818130910521F145
:1010B0002A813B81223031052CF48A819B81009763
:1010C00061F046C02A813B812230310521F18A81BD
:1010D0009B818330910571F13BC0AFE4B0E0EFE458
:1010E000F0E080818F7B8C93AFE4B0E0EFE4F0E040
:1010F00080818F778C932CC0AFE4B0E0EFE4F0E018
:10110000808180648C93AFE4B0E0EFE4F0E0808114
:101110008F778C931DC0AFE4B0E0EFE4F0E0808106
:101120008F7B8C93AFE4B0E0EFE4F0E080818068E7
:101130008C930EC0AFE4B0E0EFE4F0E08081806417
:101140008C93AFE4B0E0EFE4F0E0808180688C93B2
:101150000F900F900F90CF91DF910895DF93CF9371
:1011600000D00F92CDB7DEB789838981282F30E078
:101170003B832A838A819B818130910521F12A81D9
:101180003B81223031052CF48A819B81009761F0EC
:1011900046C02A813B812230310521F18A819B8121
:1011A0008330910571F13BC0AFE4B0E0EFE4F0E0D3
:1011B00080818F7E8C93AFE4B0E0EFE4F0E080813B
:1011C0008F7D8C932CC0AFE4B0E0EFE4F0E0808141
:1011D00080618C93AFE4B0E0EFE4F0E080818F7D3C
:1011E0008C931DC0AFE4B0E0EFE4F0E080818F7E2F
:1011F0008C93AFE4B0E0EFE4F0E0808180628C9308
:101200000EC0AFE4B0E0EFE4F0E0808180618C9349
:10121000AFE4B0E0EFE4F0E0808180628C930F9067
:101220000F900F90CF91DF910895DF93CF930F929E
:10123000CDB7DEB789838981882341F4AEE4B0E07D
:10124000EEE4F0E0808180648C930AC08981813073
:1012500039F4AEE4B0E0EEE4F0E080818F7B8C9373
:101260000F90CF91DF910895DF93CF93CDB7DEB785
:10127000E6E4F0E080819181CF91DF910895DF93E2
:10128000CF93CDB7DEB7A9E5B0E0E9E5F0E0808126
:1012900080628C93CF91DF910895DF93CF93CDB788
:1012A000DEB7A9E5B0E0E9E5F0E080818F7D8C93C1
:1012B000CF91DF910895DF93CF93CDB7DEB7A9E546
:1012C000B0E0E9E5F0E0808184608C93CF91DF911C
:1012D0000895DF93CF93CDB7DEB7A9E5B0E0E9E598
:1012E000F0E080818B7F8C93CF91DF910895DF9325
:1012F000CF93CDB7DEB7A9E5B0E0E9E5F0E08081B6
:1013000080618C93CF91DF910895DF93CF93CDB718
:10131000DEB7A9E5B0E0E9E5F0E080818F7E8C934F
:10132000CF91DF910895DF93CF93CDB7DEB7A9E5D5
:10133000B0E0E9E5F0E0808188608C93CF91DF91A7
:101340000895DF93CF93CDB7DEB7A9E5B0E0E9E527
:10135000F0E08081877F8C93CF91DF910895DF93B8
:10136000CF9300D0CDB7DEB79A838983E8E4F0E06D
:1013700089819A81918380830F900F90CF91DF9123
:101380000895DF93CF9300D0CDB7DEB79A838983DA
:10139000EAE4F0E089819A81918380830F900F9035
:1013A000CF91DF910895DF93CF9300D0CDB7DEB713
:1013B0009A83898389819A8190935B0180935A01F2
:1013C0000F900F90CF91DF910895DF93CF9300D0CE
:1013D000CDB7DEB79A83898389819A8190935D0125
:1013E00080935C010F900F90CF91DF910895DF9370
:1013F000CF9300D0CDB7DEB79A83898389819A8154
:1014000090935F0180935E010F900F90CF91DF91D9
:101410000895DF93CF9300D0CDB7DEB79A83898349
:1014200089819A8190936101809360010F900F9060
:10143000CF91DF9108951F920F920FB60F92112452
:101440002F933F934F935F936F937F938F939F93CC
:10145000AF93BF93EF93FF93DF93CF93CDB7DEB7F7
:1014600080915A0190915B01009729F0E0915A0117
:10147000F0915B010995CF91DF91FF91EF91BF91C1
:10148000AF919F918F917F916F915F914F913F911C
:101490002F910F900FBE0F901F9018951F920F92D3
:1014A0000FB60F9211242F933F934F935F936F9337
:1014B0007F938F939F93AF93BF93EF93FF93DF93AC
:1014C000CF93CDB7DEB780915C0190915D0100971D
:1014D00029F0E0915C01F0915D010995CF91DF91D8
:1014E000FF91EF91BF91AF919F918F917F916F91FC
:1014F0005F914F913F912F910F900FBE0F901F90D2
:1015000018951F920F920FB60F9211242F933F93AD
:101510004F935F936F937F938F939F93AF93BF93FB
:10152000EF93FF93DF93CF93CDB7DEB780915E014A
:1015300090915F01009729F0E0915E01F0915F01C9
:101540000995CF91DF91FF91EF91BF91AF919F915D
:101550008F917F916F915F914F913F912F910F905C
:101560000FBE0F901F9018951F920F920FB60F92FB
:1015700011242F933F934F935F936F937F938F9398
:101580009F93AF93BF93EF93FF93DF93CF93CDB729
:10159000DEB78091600190916101009729F0E091A0
:1015A0006001F09161010995CF91DF91FF91EF9179
:1015B000BF91AF919F918F917F916F915F914F916B
:1015C0003F912F910F900FBE0F901F901895DF93B2
:1015D000CF93CDB7DEB7AFE5B0E0EFE5F0E08081C7
:1015E00080688C93CF91DF910895DF93CF93CDB72F
:1015F000DEB7AFE5B0E0EFE5F0E080818F778C9368
:10160000CF91DF910895DF93CF93CDB7DEB7A5E5F6
:10161000B0E0E5E5F0E0808182608C93A5E5B0E084
:10162000E5E5F0E080818E7F8C93ABE5B0E0EBE503
:10163000F0E0808180648C93CF91DF910895DF93F7
:10164000CF93CDB7DEB7A5E5B0E0E5E5F0E080816A
:1016500088608C93A5E5B0E0E5E5F0E080818B7FC4
:101660008C93ABE5B0E0EBE5F0E0808180688C9393
:10167000CF91DF910895DF93CF93CDB7DEB7A4E587
:10168000B0E0E4E5F0E080818F7B8C93ABE5B0E0E7
:10169000EBE5F0E0808180628C93CF91DF9108953B
:1016A000DF93CF9300D000D0CDB7DEB78A83198205
:1016B0008A81282F30E03C832B838B819C81823070
:1016C000910599F12B813C812330310534F48B81D4
:1016D0009C8181309105C1F146C02B813C81233032
:1016E0003105A1F08B819C8184309105E1F5A5E560
:1016F000B0E0E5E5F0E0808182608C93A5E5B0E0A4
:10170000E5E5F0E0808181608C932FC0A5E5B0E035
:10171000E5E5F0E0808182608C93A5E5B0E0E5E549
:10172000F0E080818E7F8C9320C0A5E5B0E0E5E5F8
:10173000F0E080818D7F8C93A5E5B0E0E5E5F0E0F9
:10174000808181608C9311C0A5E5B0E0E5E5F0E013
:1017500080818D7F8C93A5E5B0E0E5E5F0E08081A8
:101760008E7F8C9302C081E0898389810F900F90D6
:101770000F900F90CF91DF910895DF93CF9300D01A
:1017800000D0CDB7DEB78A8319828A81282F30E056
:101790003C832B838B819C818230910599F12B8135
:1017A0003C812330310534F48B819C81813091055B
:1017B000C1F146C02B813C8123303105A1F08B81E2
:1017C0009C8184309105E1F5A5E5B0E0E5E5F0E028
:1017D000808188608C93A5E5B0E0E5E5F0E080814C
:1017E00084608C932FC0A5E5B0E0E5E5F0E0808152
:1017F00088608C93A5E5B0E0E5E5F0E080818B7F23
:101800008C9320C0A5E5B0E0E5E5F0E08081877F1E
:101810008C93A5E5B0E0E5E5F0E0808184608C93F1
:1018200011C0A5E5B0E0E5E5F0E08081877F8C930D
:10183000A5E5B0E0E5E5F0E080818B7F8C9302C008
:1018400081E0898389810F900F900F900F90CF9145
:10185000DF910895DF93CF9300D000D0CDB7DEB7EE
:101860008A8319828A81282F30E03C832B838B81E5
:101870009C818330910569F02B813C8124303105B6
:1018800081F4A4E5B0E0E4E5F0E0808180648C932D
:101890000AC0A4E5B0E0E4E5F0E080818F7B8C93A2
:1018A00002C081E0898389810F900F900F900F9083
:1018B000CF91DF910895DF93CF9300D0CDB7DEB7FE
:1018C0008A8319828A81813041F4ABE5B0E0EBE58F
:1018D000F0E0808180648C9318C08A81823041F46A
:1018E000ABE5B0E0EBE5F0E0808180688C930DC063
:1018F0008A81833041F4ABE5B0E0EBE5F0E0808134
:1019000080628C9302C081E0898389810F900F905F
:10191000CF91DF910895DF93CF9300D0CDB7DEB79D
:101920008A8319828A81813041F4ABE5B0E0EBE52E
:10193000F0E080818F7B8C9318C08A81823041F4E3
:10194000ABE5B0E0EBE5F0E080818F778C930DC0E4
:101950008A81833041F4ABE5B0E0EBE5F0E08081D3
:101960008F7D8C9302C081E0898389810F900F90D5
:10197000CF91DF910895DF93CF9300D00F92CDB731
:10198000DEB79B838A8319828A819B81009739F015
:101990008A819B81909363018093620102C082E0FF
:1019A000898389810F900F900F90CF91DF910895D7
:1019B0001F920F920FB60F9211242F933F934F93C4
:1019C0005F936F937F938F939F93AF93BF93EF93A7
:1019D000FF93DF93CF93CDB7DEB7809162019091F3
:1019E0006301009729F0E0916201F091630109958C
:1019F000CF91DF91FF91EF91BF91AF919F918F9127
:101A00007F916F915F914F913F912F910F900FBEFA
:101A10000F901F901895DF93CF9300D00F92CDB702
:101A2000DEB79B838A8319828A819B81009739F074
:101A30008A819B81909365018093640102C082E05A
:101A4000898389810F900F900F90CF91DF91089536
:101A50001F920F920FB60F9211242F933F934F9323
:101A60005F936F937F938F939F93AF93BF93EF9306
:101A7000FF93DF93CF93CDB7DEB780916401909150
:101A80006501009729F0E0916401F09165010995E5
:101A9000CF91DF91FF91EF91BF91AF919F918F9186
:101AA0007F916F915F914F913F912F910F900FBE5A
:101AB0000F901F901895DF93CF9300D00F92CDB762
:101AC000DEB79B838A8319828A819B81009739F0D4
:101AD0008A819B81909367018093660102C082E0B6
:101AE000898389810F900F900F90CF91DF91089596
:101AF0001F920F920FB60F9211242F933F934F9383
:101B00005F936F937F938F939F93AF93BF93EF9365
:101B1000FF93DF93CF93CDB7DEB7809166019091AD
:101B20006701009729F0E0916601F091670109953E
:101B3000CF91DF91FF91EF91BF91AF919F918F91E5
:101B40007F916F915F914F913F912F910F900FBEB9
:101B50000F901F901895DF93CF93CDB7DEB72897DE
:101B60000FB6F894DEBF0FBECDBF8A836B834C8364
:101B700019828B81883008F0F4C08C81813009F0A3
:101B800072C08A81282F30E038872F838F81988513
:101B90008130910549F12F813885223031052CF4AF
:101BA0008F819885009761F05BC02F813885223046
:101BB000310571F18F81988583309105E9F150C02D
:101BC000AAE3B0E0EAE3F0E08081482F8B81282F80
:101BD00030E081E090E0022E02C0880F991F0A9445
:101BE000E2F7842B8C93BFC0A7E3B0E0E7E3F0E01B
:101BF0008081482F8B81282F30E081E090E0022EF9
:101C000002C0880F991F0A94E2F7842B8C93ABC013
:101C1000A4E3B0E0E4E3F0E08081482F8B81282F3B
:101C200030E081E090E0022E02C0880F991F0A94F4
:101C3000E2F7842B8C9397C0A1E3B0E0E1E3F0E0FE
:101C40008081482F8B81282F30E081E090E0022EA8
:101C500002C0880F991F0A94E2F7842B8C9383C0EB
:101C600081E0898380C08C81882309F077C08A81D4
:101C7000282F30E03E832D838D819E818130910518
:101C800059F12D813E81223031052CF48D819E81C8
:101C9000009769F060C02D813E812230310589F1C5
:101CA0008D819E818330910509F440C054C0AAE320
:101CB000B0E0EAE3F0E08081482F8B81282F30E00C
:101CC00081E090E0022E02C0880F991F0A94E2F78B
:101CD000809584238C9347C0A7E3B0E0E7E3F0E06E
:101CE0008081482F8B81282F30E081E090E0022E08
:101CF00002C0880F991F0A94E2F7809584238C9381
:101D000032C0A4E3B0E0E4E3F0E08081482F8B81AF
:101D1000282F30E081E090E0022E02C0880F991F4A
:101D20000A94E2F7809584238C931DC0A1E3B0E070
:101D3000E1E3F0E08081482F8B81282F30E081E0C3
:101D400090E0022E02C0880F991F0A94E2F7809556
:101D500084238C9308C081E0898305C081E0898356
:101D600002C081E08983898128960FB6F894DEBF8E
:101D70000FBECDBFCF91DF910895DF93CF9300D0F9
:101D800000D00F92CDB7DEB78A836B8319828A8128
:101D9000282F30E03D832C838C819D8181309105FB
:101DA000D1F02C813D81223031052CF48C819D8134
:101DB000009761F01FC02C813D812230310581F0F8
:101DC0008C819D818330910581F014C0EAE3F0E0BD
:101DD0008B81808311C0E7E3F0E08B8180830CC0AE
:101DE000E4E3F0E08B81808307C0E1E3F0E08B81E6
:101DF000808302C081E0898389810F900F900F90CA
:101E00000F900F90CF91DF910895DF93CF93CDB7CF
:101E1000DEB728970FB6F894DEBF0FBECDBF8A831A
:101E20006B834C8319828B81883008F0F4C08C81DD
:101E3000813009F072C08A81282F30E038872F83E3
:101E40008F8198858130910549F12F813885223025
:101E500031052CF48F819885009761F05BC02F814C
:101E600038852230310571F18F8198858330910555
:101E7000E9F150C0ABE3B0E0EBE3F0E08081482F44
:101E80008B81282F30E081E090E0022E02C0880F85
:101E9000991F0A94E2F7842B8C93BFC0A8E3B0E0AB
:101EA000E8E3F0E08081482F8B81282F30E081E04B
:101EB00090E0022E02C0880F991F0A94E2F7842B4B
:101EC0008C93ABC0A5E3B0E0E5E3F0E08081482F60
:101ED0008B81282F30E081E090E0022E02C0880F35
:101EE000991F0A94E2F7842B8C9397C0A2E3B0E089
:101EF000E2E3F0E08081482F8B81282F30E081E001
:101F000090E0022E02C0880F991F0A94E2F7842BFA
:101F10008C9383C081E0898380C08C81882309F001
:101F200077C08A81282F30E03E832D838D819E816A
:101F30008130910559F12D813E81223031052CF4FB
:101F40008D819E81009769F060C02D813E81223095
:101F5000310589F18D819E818330910509F440C05E
:101F600054C0ABE3B0E0EBE3F0E08081482F8B811D
:101F7000282F30E081E090E0022E02C0880F991FE8
:101F80000A94E2F7809584238C9347C0A8E3B0E0DD
:101F9000E8E3F0E08081482F8B81282F30E081E05A
:101FA00090E0022E02C0880F991F0A94E2F78095F4
:101FB00084238C9332C0A5E3B0E0E5E3F0E08081B8
:101FC000482F8B81282F30E081E090E0022E02C064
:101FD000880F991F0A94E2F7809584238C931DC083
:101FE000A2E3B0E0E2E3F0E08081482F8B81282F6C
:101FF00030E081E090E0022E02C0880F991F0A9421
:10200000E2F7809584238C9308C081E0898305C022
:1020100081E0898302C081E08983898128960FB697
:10202000F894DEBF0FBECDBFCF91DF910895DF934F
:10203000CF9300D000D00F92CDB7DEB78A836B83E9
:1020400019828A81282F30E03D832C838C819D81E9
:1020500081309105D1F02C813D81223031052CF465
:102060008C819D81009761F01FC02C813D812230C1
:10207000310581F08C819D818330910581F014C000
:10208000EBE3F0E08B81808311C0E8E3F0E08B812B
:1020900080830CC0E5E3F0E08B81808307C0E2E33E
:1020A000F0E08B81808302C081E0898389810F9079
:1020B0000F900F900F900F90CF91DF910895DF93C5
:1020C000CF93CDB7DEB727970FB6F894DEBF0FBE1C
:1020D000CDBF8A836B835D834C8319828C819D8104
:1020E000009709F478C08B81883008F074C08A8129
:1020F000282F30E03F832E834E815F814130510590
:1021000059F18E819F818230910534F42E813F8177
:102110002115310569F05CC04E815F814230510567
:1021200079F18E819F818330910509F43DC050C0C3
:10213000E9E3F0E08081282F30E08B81882F90E068
:10214000A90102C0559547958A95E2F7CA018170A9
:10215000EC81FD81808341C0E6E3F0E08081282F9F
:1021600030E08B81882F90E0A90102C055954795FA
:102170008A95E2F7CA018170EC81FD8180832DC0D0
:10218000E3E3F0E08081282F30E08B81882F90E01E
:10219000A90102C0559547958A95E2F7CA01817059
:1021A000EC81FD81808319C0E0E3F0E08081282F7D
:1021B00030E08B81882F90E0A90102C055954795AA
:1021C0008A95E2F7CA018170EC81FD81808305C0A8
:1021D00081E0898302C081E08983898127960FB6D7
:1021E000F894DEBF0FBECDBFCF91DF910895DF938E
:1021F000CF93CDB7DEB7A7E2B0E0E7E2F0E08081B1
:102200008F778C93A7E2B0E0E7E2F0E08081806412
:102210008C93A7E2B0E0E7E2F0E0808180628C93EB
:10222000A6E2B0E0E6E2F0E08081887F8C93A6E24F
:10223000B0E0E6E2F0E0808187608C93A6E2B0E057
:10224000E6E2F0E0808180688C93CF91DF91089581
:10225000DF93CF9300D00F92CDB7DEB78983809103
:102260006C01813019F41B821A8236C081E08093A0
:102270006C01A7E2B0E0E7E2F0E08081807E8C9321
:10228000A7E2B0E0E7E2F0E08081982F89818F71CA
:10229000892B8C93A6E2B0E0E6E2F0E080818064D6
:1022A0008C93E6E2F0E0808182958F70882F90E039
:1022B000817090700097A9F3A6E2B0E0E6E2F0E04A
:1022C000808180618C9310926C01E5E2F0E0808166
:1022D000282F30E03B832A838A819B810F900F90C7
:1022E0000F90CF91DF910895DF93CF9300D000D06E
:1022F0000F92CDB7DEB789837B836A8380916C01AF
:10230000813029F481E090E09D838C832AC081E0B4
:1023100080936C01A7E2B0E0E7E2F0E08081807E8C
:102320008C93A7E2B0E0E7E2F0E08081982F89810A
:102330008F71892B8C938A819B8190936901809303
:102340006801A6E2B0E0E6E2F0E0808188608C936C
:10235000A6E2B0E0E6E2F0E0808180648C931D822A
:102360001C828C819D810F900F900F900F900F9089
:10237000CF91DF9108951F920F920FB60F92112403
:102380002F933F934F935F936F937F938F939F937D
:10239000AF93BF93EF93FF93DF93CF93CDB7DEB7A8
:1023A00080916801909169010097B9F0E5E2F0E051
:1023B0008081882F90E090936B0180936A01E09177
:1023C0006801F0916901099510926C01A6E2B0E0F4
:1023D000E6E2F0E08081877F8C93CF91DF91FF91DF
:1023E000EF91BF91AF919F918F917F916F915F918D
:1023F0004F913F912F910F900FBE0F901F90189506
:10240000DF93CF9300D000D00F92CDB7DEB78D838E
:102410008D810E9428119C838B838B819C81CC01B0
:10242000A0E0B0E028E833E140E050E0BC01CD019D
:102430000E945120DC01CB01892F9A2FAB2FBB27A3
:102440009A83898389819A810F900F900F900F90C2
:102450000F90CF91DF910895DF93CF9300D0CDB748
:10246000DEB780916A0190916B01CC01A0E0B0E0F1
:1024700028E833E140E050E0BC01CD010E9451204A
:10248000DC01CB01892F9A2FAB2FBB279A8389833D
:1024900089819A810F900F90CF91DF910895DF93FA
:1024A000CF93CDB7DEB784E062E00E94720782E08E
:1024B0000E94AE088FE19EE40E94C10987EE93E07E
:1024C0000E94AF09CF91DF910895DF93CF9300D0A1
:1024D0000F92CDB7DEB78B838B81282F30E084E657
:1024E00090E0AC01249FC001259F900D349F900D7A
:1024F0001124805D9E4E29E030E0B9010E947020D9
:10250000CB019A83898389819A810E94AF090F90B8
:102510000F900F90CF91DF910895DF93CF9300D06C
:102520000F92CDB7DEB78A836B8319828B81883097
:1025300058F48A816B8141E00E94AB0D8A816B81E6
:1025400040E00E94050F02C081E0898389810F90DD
:102550000F900F90CF91DF910895DF93CF9300D02C
:102560000F92CDB7DEB78A836B8319828B81883057
:1025700030F48A816B8141E00E94050F02C081E046
:10258000898389810F900F900F90CF91DF910895EB
:10259000DF93CF9300D000D00F92CDB7DEB78A8300
:1025A0006B8319828B818A3008F056C08A816FEF65
:1025B0000E94BD0E8A81282F30E03D832C838C81C0
:1025C0009D818130910509F12C813D8122303105B9
:1025D0002CF48C819D81009761F03BC02C813D8162
:1025E00022303105F1F08C819D818330910529F1F4
:1025F00030C08B81882F90E0FC01ED5CFE4F908114
:1026000080E0692F0E94171029C08B81882F90E0ED
:10261000FC01ED5CFE4F908181E0692F0E94171054
:102620001DC08B81882F90E0FC01ED5CFE4F9081F6
:1026300082E0692F0E94171011C08B81882F90E0D3
:10264000FC01ED5CFE4F908183E0692F0E94171022
:1026500005C081E0898302C081E0898389810F9070
:102660000F900F900F900F90CF91DF910895EF9200
:102670000F93DF93CF93CDB7DEB7A3970FB6F89440
:10268000DEBF0FBECDBF8E8F6F8F48A329A30AA3D5
:10269000EBA21D8E90913C0188A1981708F403C10C
:1026A00090913C018AA1981708F4FDC08F8D6BA111
:1026B0000E94AD128F8D69A10E948D128E8D68A12E
:1026C0000E94C81280E090E0A8ECB2E4898F9A8F53
:1026D000AB8FBC8F698D7A8D8B8D9C8D20E030E027
:1026E0004AEF54E40E941F02DC01CB018D8B9E8BCC
:1026F000AF8BB88F6D897E898F89988D20E030E00F
:1027000040E85FE30E94790388232CF481E090E0A5
:102710009C8B8B8B3FC06D897E898F89988D20E043
:102720003FEF4FE757E40E94190318164CF5698DE7
:102730007A8D8B8D9C8D20E030E040E251E40E9448
:102740001F02DC01CB01BC01CD010E944900DC016C
:10275000CB019C8B8B8B0FC088EC90E09A8B898B84
:1027600089899A890197F1F79A8B898B8B899C8942
:1027700001979C8B8B8B8B899C89009769F714C080
:102780006D897E898F89988D0E944900DC01CB017B
:102790009C8B8B8B8B899C89988B8F878F85988955
:1027A0000197F1F7988B8F878F8D69A10E94AD12E9
:1027B0008F8D6BA10E948D128E8D6AA10E94C8120E
:1027C00080E090E0A0E2B1E48B879C87AD87BE8774
:1027D0006B857C858D859E8520E030E04AEF54E452
:1027E0000E941F02DC01CB018F839887A987BA87DB
:1027F0006F81788589859A8520E030E040E85FE345
:102800000E94790388232CF481E090E09E838D83DD
:102810003FC06F81788589859A8520E03FEF4FE73B
:1028200057E40E94190318164CF56B857C858D853D
:102830009E8520E030E040E251E40E941F02DC016E
:10284000CB01BC01CD010E944900DC01CB019E837C
:102850008D830FC088EC90E09C838B838B819C815F
:102860000197F1F79C838B838D819E8101979E83D5
:102870008D838D819E81009769F717C06F81788560
:1028800089859A850E944900DC01CB019E838D8356
:102890008D819E819A83898389819A810197F1F73D
:1028A0009A83898302C081E08D8F8D8DA3960FB6A8
:1028B000F894DEBF0FBECDBFCF91DF910F91EF90A7
:1028C0000895DF93CF93CDB7DEB7E8970FB6F894AE
:1028D000DEBF0FBECDBF82E06FEF0E94BD0E83E072
:1028E00060E041E00E94AB0D83E061E041E00E94C6
:1028F000AB0D83E062E041E00E94AB0D80E090E030
:10290000A0E2B2E48DAB9EABAFABB8AF6DA97EA930
:102910008FA998AD20E030E04AEF54E40E941F02F6
:10292000DC01CB0189AB9AABABABBCAB69A97AA993
:102930008BA99CA920E030E040E85FE30E94790386
:1029400088232CF481E090E098AB8FA73FC069A961
:102950007AA98BA99CA920E03FEF4FE757E40E949A
:10296000190318164CF56DA97EA98FA998AD20E022
:1029700030E040E251E40E941F02DC01CB01BC01C7
:10298000CD010E944900DC01CB0198AB8FA70FC09D
:1029900088EC90E09EA78DA78DA59EA50197F1F7E5
:1029A0009EA78DA78FA598A9019798AB8FA78FA5F4
:1029B00098A9009769F714C069A97AA98BA99CA95D
:1029C0000E944900DC01CB0198AB8FA78FA598A985
:1029D0009CA78BA78BA59CA50197F1F79CA78BA71C
:1029E00088E30E946B1780E090E0A0E8BFE38FA32C
:1029F00098A7A9A7BAA76FA178A589A59AA520E04D
:102A000030E04AEF54E40E941F02DC01CB018BA3AB
:102A10009CA3ADA3BEA36BA17CA18DA19EA120E030
:102A200030E040E85FE30E94790388232CF481E0E2
:102A300090E09AA389A33FC06BA17CA18DA19EA128
:102A400020E03FEF4FE757E40E94190318164CF5BA
:102A50006FA178A589A59AA520E030E040E251E475
:102A60000E941F02DC01CB01BC01CD010E94490084
:102A7000DC01CB019AA389A30FC088EC90E098A356
:102A80008F8F8F8D98A10197F1F798A38F8F89A1D0
:102A90009AA101979AA389A389A19AA1009769F79E
:102AA00014C06BA17CA18DA19EA10E944900DC01F4
:102AB000CB019AA389A389A19AA19E8F8D8F8D8D19
:102AC0009E8D0197F1F79E8F8D8F8FE00E946B177F
:102AD00080E090E0A0E8BFE3898F9A8FAB8FBC8F36
:102AE000698D7A8D8B8D9C8D20E030E04AEF54E427
:102AF0000E941F02DC01CB018D8B9E8BAF8BB88FA8
:102B00006D897E898F89988D20E030E040E85FE311
:102B10000E94790388232CF481E090E09C8B8B8BBE
:102B20003FC06D897E898F89988D20E03FEF4FE708
:102B300057E40E94190318164CF5698D7A8D8B8D18
:102B40009C8D20E030E040E251E40E941F02DC0155
:102B5000CB01BC01CD010E944900DC01CB019C8B63
:102B60008B8B0FC088EC90E09A8B898B89899A892E
:102B70000197F1F79A8B898B8B899C8901979C8BA4
:102B80008B8B8B899C89009769F714C06D897E892E
:102B90008F89988D0E944900DC01CB019C8B8B8B27
:102BA0008B899C89988B8F878F8598890197F1F7FE
:102BB000988B8F8781E00E946B1780E090E0A0E007
:102BC000B0E48B879C87AD87BE876B857C858D85C0
:102BD0009E8520E030E04AEF54E40E941F02DC01B1
:102BE000CB018F839887A987BA876F81788589857C
:102BF0009A8520E030E040E85FE30E947903882373
:102C00002CF481E090E09E838D833FC06F817885B6
:102C100089859A8520E03FEF4FE757E40E9419032A
:102C200018164CF56B857C858D859E8520E030E0FF
:102C300040E251E40E941F02DC01CB01BC01CD0146
:102C40000E944900DC01CB019E838D830FC088EC7C
:102C500090E09C838B838B819C810197F1F79C830F
:102C60008B838D819E8101979E838D838D819E8133
:102C7000009769F714C06F81788589859A850E94CD
:102C80004900DC01CB019E838D838D819E819A83D7
:102C9000898389819A810197F1F79A83898382E0F8
:102CA0000E946B17E8960FB6F894DEBF0FBECDBF3B
:102CB000CF91DF910895DF93CF93CDB7DEB76D97B6
:102CC0000FB6F894DEBF0FBECDBF8D8F83E060E0FE
:102CD00041E00E94050F83E061E040E00E94050FA3
:102CE00082E06D8D0E94171083E062E041E00E9457
:102CF000050F80E090E0A0E0B0E4898F9A8FAB8F61
:102D0000BC8F698D7A8D8B8D9C8D20E030E04AEFF1
:102D100054E40E941F02DC01CB018D8B9E8BAF8B94
:102D2000B88F6D897E898F89988D20E030E040E8EA
:102D30005FE30E94790388232CF481E090E09C8B70
:102D40008B8B3FC06D897E898F89988D20E03FEF06
:102D50004FE757E40E94190318164CF5698D7A8DD8
:102D60008B8D9C8D20E030E040E251E40E941F02F8
:102D7000DC01CB01BC01CD010E944900DC01CB018B
:102D80009C8B8B8B0FC088EC90E09A8B898B898908
:102D90009A890197F1F79A8B898B8B899C89019786
:102DA0009C8B8B8B8B899C89009769F714C06D89EC
:102DB0007E898F89988D0E944900DC01CB019C8B14
:102DC0008B8B8B899C89988B8F878F8598890197AE
:102DD000F1F7988B8F8783E062E040E00E94050F57
:102DE00080E090E0A0E0B0E48B879C87AD87BE8751
:102DF0006B857C858D859E8520E030E04AEF54E42C
:102E00000E941F02DC01CB018F839887A987BA87B4
:102E10006F81788589859A8520E030E040E85FE31E
:102E20000E94790388232CF481E090E09E838D83B7
:102E30003FC06F81788589859A8520E03FEF4FE715
:102E400057E40E94190318164CF56B857C858D8517
:102E50009E8520E030E040E251E40E941F02DC0148
:102E6000CB01BC01CD010E944900DC01CB019E8356
:102E70008D830FC088EC90E09C838B838B819C8139
:102E80000197F1F79C838B838D819E8101979E83AF
:102E90008D838D819E81009769F714C06F8178853D
:102EA00089859A850E944900DC01CB019E838D8330
:102EB0008D819E819A83898389819A810197F1F717
:102EC0009A8389836D960FB6F894DEBF0FBECDBF8F
:102ED000CF91DF910895DF93CF93CDB7DEB76D9794
:102EE0000FB6F894DEBF0FBECDBF8D8F83E060E0DC
:102EF00040E00E94050F83E061E040E00E94050F82
:102F000082E06D8D0E94171083E062E041E00E9434
:102F1000050F80E090E0A0E0B0E4898F9A8FAB8F3E
:102F2000BC8F698D7A8D8B8D9C8D20E030E04AEFCF
:102F300054E40E941F02DC01CB018D8B9E8BAF8B72
:102F4000B88F6D897E898F89988D20E030E040E8C8
:102F50005FE30E94790388232CF481E090E09C8B4E
:102F60008B8B3FC06D897E898F89988D20E03FEFE4
:102F70004FE757E40E94190318164CF5698D7A8DB6
:102F80008B8D9C8D20E030E040E251E40E941F02D6
:102F9000DC01CB01BC01CD010E944900DC01CB0169
:102FA0009C8B8B8B0FC088EC90E09A8B898B8989E6
:102FB0009A890197F1F79A8B898B8B899C89019764
:102FC0009C8B8B8B8B899C89009769F714C06D89CA
:102FD0007E898F89988D0E944900DC01CB019C8BF2
:102FE0008B8B8B899C89988B8F878F85988901978C
:102FF000F1F7988B8F8783E062E040E00E94050F35
:1030000080E090E0A0E0B0E48B879C87AD87BE872E
:103010006B857C858D859E8520E030E04AEF54E409
:103020000E941F02DC01CB018F839887A987BA8792
:103030006F81788589859A8520E030E040E85FE3FC
:103040000E94790388232CF481E090E09E838D8395
:103050003FC06F81788589859A8520E03FEF4FE7F3
:1030600057E40E94190318164CF56B857C858D85F5
:103070009E8520E030E040E251E40E941F02DC0126
:10308000CB01BC01CD010E944900DC01CB019E8334
:103090008D830FC088EC90E09C838B838B819C8117
:1030A0000197F1F79C838B838D819E8101979E838D
:1030B0008D838D819E81009769F714C06F8178851B
:1030C00089859A850E944900DC01CB019E838D830E
:1030D0008D819E819A83898389819A810197F1F7F5
:1030E0009A8389836D960FB6F894DEBF0FBECDBF6D
:1030F000CF91DF910895DF93CF9300D00F92CDB79A
:10310000DEB79B838A8319820EC08981282F30E025
:103110008A819B81FC01E20FF31F80810E945B1674
:1031200089818F5F89838981282F30E08A819B8103
:10313000FC01E20FF31F8081882339F70F900F9075
:103140000F90CF91DF910895DF93CF9300D000D0FF
:10315000CDB7DEB79C838B8381E090E09A8389832F
:103160008B819C81009739F58B81805D0E945B1675
:1031700022C089819A819C01220F331FC901880FC7
:10318000991F880F991FF901E80FF91F8B819C8106
:103190002AE030E0B9010E9470208E0F9F1F9A83B1
:1031A00089838B819C812AE030E0B9010E947020E4
:1031B000CB019C838B838B819C810097D1F617C0B8
:1031C00089819A812AE030E0B9010E9470209C83B5
:1031D0008B8389819A812AE030E0B9010E947020B6
:1031E000CB019A8389838B81805D0E945B168981E4
:1031F0009A818230910520F70F900F900F900F90D9
:10320000CF91DF910895DF93CF9300D0CDB7DEB794
:1032100089836A838981882329F48A8180580E945E
:103220006B1707C08981813021F48A8180540E9404
:103230006B170F900F90CF91DF910895DF93CF938D
:1032400000D000D000D0CDB7DEB79B838A836C83DB
:103250004D832E8319828C81882F90E00896880FE9
:10326000991F880F991F880F991F0E946B17198249
:103270000EC08981282F30E08A819B81FC01E20FFA
:10328000F31F80810E945B1689818F5F898389810A
:10329000883078F380E80E946B178D816E810E94E0
:1032A00003198C810E945B1626960FB6F894DEBF38
:1032B0000FBECDBFCF91DF910895DF93CF9300D0A4
:1032C00000D00F92CDB7DEB78FEF8B8381E060E047
:1032D00041E00E94AB0D81E061E041E00E94AB0D56
:1032E00081E062E041E00E94AB0D81E063E041E0FB
:1032F0000E94AB0D81E060E041E00E94050F81E09B
:1033000061E041E00E94050F81E062E041E00E943F
:10331000050F81E063E041E00E94050F81E064E079
:1033200040E00E94AB0D81E065E040E00E94AB0D03
:1033300081E066E040E00E94AB0D81E067E040E0A4
:103340000E94AB0D81E064E041E00E94050F81E046
:1033500065E041E00E94050F81E066E041E00E94E7
:10336000050F81E067E041E00E94050F1A825EC010
:103370008A81882F90E0FC01EF5BFE4F908181E015
:10338000692F40E00E94050F19823DC08981882F76
:1033900090E0FC01E35CFE4F90819E012C5F3F4F6B
:1033A00081E0692FA9010E945F108C81882341F57B
:1033B0008981482F50E08A81282F30E0CA01880F88
:1033C000991F880F991F820F931FFC01EB5BFE4F23
:1033D00080818B830FC08981882F90E0FC01E35CA2
:1033E000FE4F90819E012C5F3F4F81E0692FA90124
:1033F0000E945F108C81882371F38B818D831CC0A8
:1034000089818F5F89838981843008F4BFCF8A8165
:10341000882F90E0FC01EF5BFE4F908181E0692FE7
:1034200041E00E94050F8A818F5F8A838A81843000
:1034300008F49ECF8B818D838D810F900F900F901C
:103440000F900F90CF91DF9108950F931F93DF930B
:10345000CF93CDB7DEB7CA56D0400FB6F894DEBFD3
:103460000FBECDBFFE01E659FF4F1082FE01E759A6
:10347000FF4F1082FE01E859FF4F1082FE01E9590B
:10348000FF4F1082FE01EA59FF4F1082FE01EB59F7
:10349000FF4F1082FE01EC59FF4F1082FE01ED59E3
:1034A000FF4F10820E94F7100E94E70A0E946114E9
:1034B0000E944F1280E060E040E00E94AB0D80E08F
:1034C00060E040E00E94050F80E061E041E00E9482
:1034D000AB0D80E062E041E00E94AB0D83E064E070
:1034E00041E00E94AB0D80E690E00E947B18FE0157
:1034F000E15AFF4F80E090E0AAE7B4E48083918333
:10350000A283B3838E01055A1F4FFE01E15AFF4F7C
:10351000608171818281938120E030E04AEF54E440
:103520000E941F02DC01CB01F80180839183A283FA
:10353000B383FE01E55AFF4F6081718182819381DF
:1035400020E030E040E85FE30E947903882344F400
:10355000FE01E75AFF4F81E090E09183808364C0D1
:10356000FE01E55AFF4F608171818281938120E0E5
:103570003FEF4FE757E40E94190318160CF043C0C1
:10358000FE01E15AFF4F608171818281938120E0C9
:1035900030E040E251E40E941F02DC01CB018E01C9
:1035A000075A1F4FBC01CD010E944900DC01CB012D
:1035B000F801918380831FC0FE01E95AFF4F88EC18
:1035C00090E091838083FE01E95AFF4F80819181D1
:1035D0000197F1F7FE01E95AFF4F91838083DE01E5
:1035E000A75ABF4FFE01E75AFF4F80819181019793
:1035F00011969C938E93FE01E75AFF4F8081918133
:103600000097D1F627C08E01075A1F4FFE01E55AD9
:10361000FF4F60817181828193810E944900DC01AA
:10362000CB01F80191838083DE01AB5ABF4FFE01CD
:10363000E75AFF4F808191818D939C93FE01EB5A55
:10364000FF4F808191810197F1F7FE01EB5AFF4F07
:103650009183808381E00E946B178DE690E00E9449
:103660007B18FE01EF5AFF4F80E090E0AAE7B4E438
:1036700080839183A283B3838E01035B1F4FFE017E
:10368000EF5AFF4F608171818281938120E030E0A9
:103690004AEF54E40E941F02DC01CB01F801808351
:1036A0009183A283B383FE01E35BFF4F608171814D
:1036B0008281938120E030E040E85FE30E9479035B
:1036C000882344F4FE01E55BFF4F81E090E09183A5
:1036D000808364C0FE01E35BFF4F60817181828162
:1036E000938120E03FEF4FE757E40E94190318163B
:1036F0000CF043C0FE01EF5AFF4F6081718182815F
:10370000938120E030E040E251E40E941F02DC019E
:10371000CB018E01055B1F4FBC01CD010E9449000A
:10372000DC01CB01F801918380831FC0FE01E75BC0
:10373000FF4F88EC90E091838083FE01E75BFF4FB1
:10374000808191810197F1F7FE01E75BFF4F918343
:103750008083DE01A55BBF4FFE01E55BFF4F8081EB
:103760009181019711969C938E93FE01E55BFF4F2B
:10377000808191810097D1F627C08E01055B1F4F94
:10378000FE01E35BFF4F60817181828193810E9422
:103790004900DC01CB01F80191838083DE01A95B44
:1037A000BF4FFE01E55BFF4F808191818D939C931C
:1037B000FE01E95BFF4F808191810197F1F7FE01E6
:1037C000E95BFF4F9183808381E00E946B1734C0D7
:1037D000FE01E759FF4F8081882F90E09C01220F66
:1037E000331FC901880F991F880F991F820F931FDC
:1037F000982FDE01A759BF4FFE01E659FF4F808188
:10380000890F8C93FE01E859FF4F8081882319F0BE
:103810008AE20E945B160E945D19FE01E659FF4F85
:103820008083FE01E859FF4F81E08083FE01E65965
:10383000FF4F80818F3F79F3FE01E659FF4F808172
:103840008D3331F6FE01E759FF4F80818B3709F048
:103850009BC281E00E946B17FE01EA59FF4F8081F5
:10386000882309F094C081E00E946B178CE790E0F8
:103870000E947B18FE01ED5BFF4F80E090E0AAE71D
:10388000B4E480839183A283B3838E01015C1F4FD4
:10389000FE01ED5BFF4F608171818281938120E0A9
:1038A00030E04AEF54E40E941F02DC01CB01F80132
:1038B00080839183A283B383FE01FF96608171812F
:1038C0008281938120E030E040E85FE30E94790349
:1038D00088232CF481E090E09EAF8DAF46C0FE01BE
:1038E000FF96608171818281938120E03FEF4FE7F5
:1038F00057E40E941903181664F5FE01ED5BFF4FB3
:10390000608171818281938120E030E040E251E466
:103910000E941F02DC01CB01BC01CD010E944900C5
:10392000DC01CB019EAF8DAF0FC088EC90E09CAF67
:103930008BAF8BAD9CAD0197F1F79CAF8BAF8DAD8D
:103940009EAD01979EAF8DAF8DAD9EAD009769F78F
:1039500016C0FE01FF9660817181828193810E9471
:103960004900DC01CB019EAF8DAF8DAD9EAD9AAF0E
:1039700089AF89AD9AAD0197F1F79AAF89AF81E030
:103980000E946B17FE01EA59FF4F81E08083FE0120
:10399000ED59FF4F8081882329F48BE890E00E9445
:1039A0007B180AC0FE01ED59FF4F8081813021F460
:1039B00088E990E00E947B18FE01EB59FF4F80815F
:1039C000882349F481E060E00E94031986EA90E0D0
:1039D0000E947B180EC0FE01EB59FF4F80818130A1
:1039E00041F481E060E00E94031987EB90E00E94BF
:1039F0007B18FE01E659FF4F8FEF80830E945D190F
:103A0000FE01E659FF4F8083FE01E659FF4F80819A
:103A10008F3FA1F3FE01E659FF4F8081813079F499
:103A2000FE01ED59FF4F8081882349F48AE50E9409
:103A30006512FE01ED59FF4F81E0808303CFFE0147
:103A4000E659FF4F8081813071F4FE01ED59FF4F3F
:103A50008081813041F480E00E946512FE01ED59C1
:103A6000FF4F1082EFCEFE01E659FF4F808182307A
:103A700089F4FE01EB59FF4F8081882359F480E0DF
:103A800062E041E00E94050FFE01EB59FF4F81E02B
:103A90008083D8CEFE01E659FF4F8081823081F4C9
:103AA000FE01EB59FF4F8081813051F480E062E0EC
:103AB00040E00E94050FFE01EB59FF4F1082C2CE7D
:103AC000FE01E659FF4F8081833009F0BBCE81E0D3
:103AD0000E946B17FE01EC59FF4F8081882329F467
:103AE00089EC90E00E947B180AC0FE01EC59FF4F60
:103AF0008081813021F487ED90E00E947B1881E085
:103B000060E00E94031986EE90E00E947B18FE019F
:103B1000E659FF4F8FEF80830E945D19FE01E65941
:103B2000FF4F8083FE01E659FF4F80818F3FA1F355
:103B3000FE01E659FF4F8081843089F4FE01EC5983
:103B4000FF4F8081882359F480E061E041E00E94CA
:103B5000050FFE01EC59FF4F81E0808373CEFE011B
:103B6000E659FF4F8081843081F4FE01EC59FF4F0C
:103B70008081813051F480E061E040E00E94050FD7
:103B8000FE01EC59FF4F10825DCEFE01E659FF4F5A
:103B90008081853009F056CE81E00E946B1724E3C6
:103BA00030E280E0B9010E94741180E090E0A8EC5E
:103BB000B2E48DAB9EABAFABB8AF6DA97EA98FA9B8
:103BC00098AD20E030E04AEF54E40E941F02DC018F
:103BD000CB0189AB9AABABABBCAB69A97AA98BA97A
:103BE0009CA920E030E040E85FE30E94790388234D
:103BF0002CF481E090E098AB8FA73FC069A97AA927
:103C00008BA99CA920E03FEF4FE757E40E941903DE
:103C100018164CF56DA97EA98FA998AD20E030E06B
:103C200040E251E40E941F02DC01CB01BC01CD0146
:103C30000E944900DC01CB0198AB8FA70FC088EC34
:103C400090E09EA78DA78DA59EA50197F1F79EA751
:103C50008DA78FA598A9019798AB8FA78FA598A935
:103C6000009769F714C069A97AA98BA99CA90E9439
:103C70004900DC01CB0198AB8FA78FA598A99CA721
:103C80008BA78BA59CA50197F1F79CA78BA785EF28
:103C900090E00E947B1880916D01882F90E00E9437
:103CA000A41880E090E0AAE7B4E48FA398A7A9A79E
:103CB000BAA76FA178A589A59AA520E030E04AEFC0
:103CC00054E40E941F02DC01CB018BA39CA3ADA393
:103CD000BEA36BA17CA18DA19EA120E030E040E8B5
:103CE0005FE30E94790388232CF481E090E09AA39B
:103CF00089A33FC06BA17CA18DA19EA120E03FEFD5
:103D00004FE757E40E94190318164CF56FA178A5E8
:103D100089A59AA520E030E040E251E40E941F020C
:103D2000DC01CB01BC01CD010E944900DC01CB01CB
:103D30009AA389A30FC088EC90E098A38F8F8F8DF2
:103D400098A10197F1F798A38F8F89A19AA1019764
:103D50009AA389A389A19AA1009769F773CD6BA152
:103D60007CA18DA19EA10E944900DC01CB019AA3F8
:103D700089A389A19AA19E8F8D8F8D8D9E8D01978C
:103D8000F1F79E8F8D8F5ECDFE01E759FF4F808149
:103D90008B3709F44DC1FE01E959FF4F8081823014
:103DA00008F046C181E00E946B178EEF90E00E9400
:103DB0007B1880E090E0AAEFB3E4898F9A8FAB8FF5
:103DC000BC8F698D7A8D8B8D9C8D20E030E04AEF21
:103DD00054E40E941F02DC01CB018D8B9E8BAF8BC4
:103DE000B88F6D897E898F89988D20E030E040E81A
:103DF0005FE30E94790388232CF481E090E09C8BA0
:103E00008B8B3FC06D897E898F89988D20E03FEF35
:103E10004FE757E40E94190318164CF5698D7A8D07
:103E20008B8D9C8D20E030E040E251E40E941F0227
:103E3000DC01CB01BC01CD010E944900DC01CB01BA
:103E40009C8B8B8B0FC088EC90E09A8B898B898937
:103E50009A890197F1F79A8B898B8B899C890197B5
:103E60009C8B8B8B8B899C89009769F714C06D891B
:103E70007E898F89988D0E944900DC01CB019C8B43
:103E80008B8B8B899C89988B8F878F8598890197DD
:103E9000F1F7988B8F8781E00E946B178DE091E09E
:103EA0000E947B1880E090E0AAEFB3E48B879C87A8
:103EB000AD87BE876B857C858D859E8520E030E053
:103EC0004AEF54E40E941F02DC01CB018F839887E4
:103ED000A987BA876F81788589859A8520E030E047
:103EE00040E85FE30E94790388232CF481E090E0AE
:103EF0009E838D833FC06F81788589859A8520E078
:103F00003FEF4FE757E40E94190318164CF56B85F5
:103F10007C858D859E8520E030E040E251E40E9462
:103F20001F02DC01CB01BC01CD010E944900DC0174
:103F3000CB019E838D830FC088EC90E09C838B83A4
:103F40008B819C810197F1F79C838B838D819E816E
:103F500001979E838D838D819E81009769F714C0A0
:103F60006F81788589859A850E944900DC01CB01A3
:103F70009E838D838D819E819A83898389819A8195
:103F80000197F1F79A83898381E00E946B17FE0104
:103F9000E759FF4F1082FE01E659FF4F1082FE01E4
:103FA000E859FF4F108234C0FE01E759FF4F80816E
:103FB000882F90E09C01220F331FC901880F991FA1
:103FC000880F991F820F931F982FDE01A759BF4FAB
:103FD000FE01E659FF4F8081890F8C93FE01E8595D
:103FE000FF4F8081882319F08AE20E945B160E94AD
:103FF0005D19FE01E659FF4F8083FE01E859FF4F2E
:1040000081E08083FE01E659FF4F80818F3F79F385
:10401000FE01E659FF4F80818D3331F6DE01A9594B
:10402000BF4FFE01E959FF4F80818F5F8C930ACC0F
:10403000FE01EA59FF4F8081882309F003CC81E01B
:104040000E946B1787E191E00E947B1881E060E09D
:104050000E9403198FE191E00E947B18FE01EA594A
:10406000FF4F81E08083EECBDF93CF93CDB7DEB7F8
:1040700080E060E00E9403190E942C1290936F016F
:1040800080936E0180916E0190916F012AE030E083
:10409000B9010E947020CB0180936D01CF91DF9117
:1040A0000895629FD001739FF001829FE00DF11D82
:1040B000649FE00DF11D929FF00D839FF00D749FA2
:1040C000F00D659FF00D9927729FB00DE11DF91F4E
:1040D000639FB00DE11DF91FBD01CF0111240895AB
:1040E000AA1BBB1B51E107C0AA1FBB1FA617B7071E
:1040F00010F0A61BB70B881F991F5A95A9F780953A
:104100009095BC01CD0108952F923F924F925F92FE
:104110006F927F928F929F92AF92BF92CF92DF92D7
:10412000EF92FF920F931F93CF93DF93CDB7DEB73C
:10413000CA1BDB0B0FB6F894DEBF0FBECDBF0994D0
:104140002A88398848885F846E847D848C849B8427
:10415000AA84B984C884DF80EE80FD800C811B8135
:10416000AA81B981CE0FD11D0FB6F894DEBF0FBE64
:0A417000CDBFED010895F894FFCFD4
:10417A0057656C636F6D65204261636B00456E74B1
:10418A0065722050617373776F72640057656C6350
:10419A006F6D652041686D65642000312D4F706533
:1041AA006E20646F6F722000312D436C6F7365202F
:1041BA00646F6F722000322D4F70656E46616E20FB
:1041CA00332D4D6F726500322D436C6F73654661F6
:1041DA006E20332D4D6F726500342D5475726E202A
:1041EA004F6E204C454400342D5475726E204F6634
:1041FA0066204C454400352D54656D7065726174B6
:10420A00757265200054656D70203D20200057723C
:10421A006F6E672070617373776F7264005472797E
:10422A0020616761696E0065786365656420007660
:10423A00616C696420747269657300000000000093
:10424A000000003F065B4F666D7D077F6F04050621
:10425A0007000102030708092F0405062A010203C1
:06426A002D24003D2B0095
:00000001FF
